{
  "contractName": "TodoList",
  "abi": [
    {
      "anonymous": false,
      "inputs": [
        {
          "indexed": false,
          "internalType": "uint256",
          "name": "id",
          "type": "uint256"
        },
        {
          "indexed": false,
          "internalType": "string",
          "name": "content",
          "type": "string"
        },
        {
          "indexed": false,
          "internalType": "bool",
          "name": "isDone",
          "type": "bool"
        },
        {
          "indexed": false,
          "internalType": "uint256",
          "name": "date",
          "type": "uint256"
        },
        {
          "indexed": false,
          "internalType": "string",
          "name": "when",
          "type": "string"
        }
      ],
      "name": "TaskCreated",
      "type": "event"
    },
    {
      "inputs": [
        {
          "internalType": "string",
          "name": "_content",
          "type": "string"
        },
        {
          "internalType": "uint256",
          "name": "_date",
          "type": "uint256"
        },
        {
          "internalType": "string",
          "name": "_when",
          "type": "string"
        }
      ],
      "name": "createTask",
      "outputs": [],
      "stateMutability": "nonpayable",
      "type": "function"
    },
    {
      "inputs": [],
      "name": "getTaskIds",
      "outputs": [
        {
          "internalType": "uint256[]",
          "name": "",
          "type": "uint256[]"
        }
      ],
      "stateMutability": "view",
      "type": "function",
      "constant": true
    },
    {
      "inputs": [],
      "name": "getTasks",
      "outputs": [
        {
          "components": [
            {
              "internalType": "uint256",
              "name": "id",
              "type": "uint256"
            },
            {
              "internalType": "string",
              "name": "content",
              "type": "string"
            },
            {
              "internalType": "bool",
              "name": "isDone",
              "type": "bool"
            },
            {
              "internalType": "uint256",
              "name": "date",
              "type": "uint256"
            },
            {
              "internalType": "uint256",
              "name": "dateOfCompletion",
              "type": "uint256"
            },
            {
              "internalType": "string",
              "name": "when",
              "type": "string"
            }
          ],
          "internalType": "struct TodoList.Task[]",
          "name": "",
          "type": "tuple[]"
        }
      ],
      "stateMutability": "view",
      "type": "function",
      "constant": true
    }
  ],
  "bytecode": "0x6080604052600160005534801561001557600080fd5b50610c55806100256000396000f3fe608060405234801561001057600080fd5b50600436106100415760003560e01c806304a87e381461004657806316c7ac9014610064578063bcd1480514610080575b600080fd5b61004e61009e565b60405161005b919061075b565b60405180910390f35b61007e600480360381019061007991906108f2565b6102be565b005b610088610409565b6040516100959190610a2c565b60405180910390f35b60606000805467ffffffffffffffff8111156100bd576100bc61079b565b5b6040519080825280602002602001820160405280156100f657816020015b6100e3610461565b8152602001906001900390816100db5790505b5090506000600190505b6000548110156102b657600260008281526020019081526020016000206040518060c00160405290816000820154815260200160018201805461014290610a7d565b80601f016020809104026020016040519081016040528092919081815260200182805461016e90610a7d565b80156101bb5780601f10610190576101008083540402835291602001916101bb565b820191906000526020600020905b81548152906001019060200180831161019e57829003601f168201915b505050505081526020016002820160009054906101000a900460ff16151515158152602001600382015481526020016004820154815260200160058201805461020390610a7d565b80601f016020809104026020016040519081016040528092919081815260200182805461022f90610a7d565b801561027c5780601f106102515761010080835404028352916020019161027c565b820191906000526020600020905b81548152906001019060200180831161025f57829003601f168201915b50505050508152505082828151811061029857610297610aaf565b5b602002602001018190525080806102ae90610b0d565b915050610100565b508091505090565b6040518060c0016040528060005481526020018481526020016000151581526020018381526020016000815260200182815250600260008054815260200190815260200160002060008201518160000155602082015181600101908051906020019061032b929190610499565b5060408201518160020160006101000a81548160ff021916908315150217905550606082015181600301556080820151816004015560a082015181600501908051906020019061037c929190610499565b50905050600160005490806001815401808255809150506001900390600052602060002001600090919091909150556000808154809291906103bd90610b0d565b91905055507fc0fff5fe410bab0f97e0eeb8265e99dce003dda2e7cba71662624cc2e81c7e6b60005484600085856040516103fc959493929190610bbe565b60405180910390a1505050565b6060600180548060200260200160405190810160405280929190818152602001828054801561045757602002820191906000526020600020905b815481526020019060010190808311610443575b5050505050905090565b6040518060c0016040528060008152602001606081526020016000151581526020016000815260200160008152602001606081525090565b8280546104a590610a7d565b90600052602060002090601f0160209004810192826104c7576000855561050e565b82601f106104e057805160ff191683800117855561050e565b8280016001018555821561050e579182015b8281111561050d5782518255916020019190600101906104f2565b5b50905061051b919061051f565b5090565b5b80821115610538576000816000905550600101610520565b5090565b600081519050919050565b600082825260208201905092915050565b6000819050602082019050919050565b6000819050919050565b61057b81610568565b82525050565b600081519050919050565b600082825260208201905092915050565b60005b838110156105bb5780820151818401526020810190506105a0565b838111156105ca576000848401525b50505050565b6000601f19601f8301169050919050565b60006105ec82610581565b6105f6818561058c565b935061060681856020860161059d565b61060f816105d0565b840191505092915050565b60008115159050919050565b61062f8161061a565b82525050565b600060c08301600083015161064d6000860182610572565b506020830151848203602086015261066582826105e1565b915050604083015161067a6040860182610626565b50606083015161068d6060860182610572565b5060808301516106a06080860182610572565b5060a083015184820360a08601526106b882826105e1565b9150508091505092915050565b60006106d18383610635565b905092915050565b6000602082019050919050565b60006106f18261053c565b6106fb8185610547565b93508360208202850161070d85610558565b8060005b85811015610749578484038952815161072a85826106c5565b9450610735836106d9565b925060208a01995050600181019050610711565b50829750879550505050505092915050565b6000602082019050818103600083015261077581846106e6565b905092915050565b6000604051905090565b600080fd5b600080fd5b600080fd5b600080fd5b7f4e487b7100000000000000000000000000000000000000000000000000000000600052604160045260246000fd5b6107d3826105d0565b810181811067ffffffffffffffff821117156107f2576107f161079b565b5b80604052505050565b600061080561077d565b905061081182826107ca565b919050565b600067ffffffffffffffff8211156108315761083061079b565b5b61083a826105d0565b9050602081019050919050565b82818337600083830152505050565b600061086961086484610816565b6107fb565b90508281526020810184848401111561088557610884610796565b5b610890848285610847565b509392505050565b600082601f8301126108ad576108ac610791565b5b81356108bd848260208601610856565b91505092915050565b6108cf81610568565b81146108da57600080fd5b50565b6000813590506108ec816108c6565b92915050565b60008060006060848603121561090b5761090a610787565b5b600084013567ffffffffffffffff8111156109295761092861078c565b5b61093586828701610898565b9350506020610946868287016108dd565b925050604084013567ffffffffffffffff8111156109675761096661078c565b5b61097386828701610898565b9150509250925092565b600081519050919050565b600082825260208201905092915050565b6000819050602082019050919050565b60006109b58383610572565b60208301905092915050565b6000602082019050919050565b60006109d98261097d565b6109e38185610988565b93506109ee83610999565b8060005b83811015610a1f578151610a0688826109a9565b9750610a11836109c1565b9250506001810190506109f2565b5085935050505092915050565b60006020820190508181036000830152610a4681846109ce565b905092915050565b7f4e487b7100000000000000000000000000000000000000000000000000000000600052602260045260246000fd5b60006002820490506001821680610a9557607f821691505b60208210811415610aa957610aa8610a4e565b5b50919050565b7f4e487b7100000000000000000000000000000000000000000000000000000000600052603260045260246000fd5b7f4e487b7100000000000000000000000000000000000000000000000000000000600052601160045260246000fd5b6000610b1882610568565b91507fffffffffffffffffffffffffffffffffffffffffffffffffffffffffffffffff821415610b4b57610b4a610ade565b5b600182019050919050565b610b5f81610568565b82525050565b600082825260208201905092915050565b6000610b8182610581565b610b8b8185610b65565b9350610b9b81856020860161059d565b610ba4816105d0565b840191505092915050565b610bb88161061a565b82525050565b600060a082019050610bd36000830188610b56565b8181036020830152610be58187610b76565b9050610bf46040830186610baf565b610c016060830185610b56565b8181036080830152610c138184610b76565b9050969550505050505056fea26469706673582212200a2f418c644f7edbce0b7974dc832fc9d2f66b7c179fe44325f3d88412fa041364736f6c634300080a0033",
  "immutableReferences": {},
  "source": "pragma solidity ^0.8.10;\n\ncontract TodoList {\n  uint private taskCount = 1;\n  uint[] private taskIds;\n\n  struct Task {\n    uint id;\n    string content;\n    bool isDone;\n    uint date;\n    uint dateOfCompletion;\n    string when;\n  }\n\n  event TaskCreated(uint id, string content, bool isDone, uint date, string when);\n\n  mapping(uint => Task) tasks;\n\n  function createTask (string memory _content, uint _date, string memory _when) public {\n    // uint _now = block.timestamp;\n    tasks[taskCount] = Task(taskCount, _content, false, _date, 0, _when);\n    taskIds.push(taskCount);\n    taskCount++;\n\n    emit TaskCreated(taskCount, _content, false, _date, _when);\n  }\n\n  function getTaskIds () public view returns (uint[] memory) {\n    return taskIds;\n  }\n\n  function getTasks () public view returns (Task[] memory) {\n    Task[] memory _tasks = new Task[](taskCount);\n\n    for (uint i = 1; i < taskCount; i++) {\n      _tasks[i] = tasks[i];\n    }\n\n    return _tasks;\n  }\n\n}",
  "sourcePath": "/Users/rr/Documents/todo-blockchain/contracts/TodoList.sol",
  "compiler": {
    "name": "solc",
    "version": "0.8.10+commit.fc410830.Emscripten.clang"
  },
  "schemaVersion": "3.4.4",
  "updatedAt": "2022-01-20T15:22:19.651Z",
  "networkType": "ethereum",
  "devdoc": {
    "kind": "dev",
    "methods": {},
    "version": 1
  },
  "userdoc": {
    "kind": "user",
    "methods": {},
    "version": 1
  }
}