{
  "contractName": "TodoList",
  "abi": [
    {
      "anonymous": false,
      "inputs": [
        {
          "indexed": false,
          "internalType": "uint256",
          "name": "id",
          "type": "uint256"
        },
        {
          "indexed": false,
          "internalType": "bool",
          "name": "isDone",
          "type": "bool"
        },
        {
          "indexed": false,
          "internalType": "uint256",
          "name": "dateOfCompletion",
          "type": "uint256"
        }
      ],
      "name": "TaskChanged",
      "type": "event"
    },
    {
      "anonymous": false,
      "inputs": [
        {
          "indexed": false,
          "internalType": "uint256",
          "name": "id",
          "type": "uint256"
        },
        {
          "indexed": false,
          "internalType": "string",
          "name": "content",
          "type": "string"
        },
        {
          "indexed": false,
          "internalType": "bool",
          "name": "isDone",
          "type": "bool"
        },
        {
          "indexed": false,
          "internalType": "uint256",
          "name": "date",
          "type": "uint256"
        }
      ],
      "name": "TaskCreated",
      "type": "event"
    },
    {
      "anonymous": false,
      "inputs": [
        {
          "indexed": false,
          "internalType": "uint256",
          "name": "id",
          "type": "uint256"
        }
      ],
      "name": "TaskDeleted",
      "type": "event"
    },
    {
      "inputs": [
        {
          "internalType": "string",
          "name": "_content",
          "type": "string"
        },
        {
          "internalType": "uint256",
          "name": "_date",
          "type": "uint256"
        }
      ],
      "name": "createTask",
      "outputs": [],
      "stateMutability": "nonpayable",
      "type": "function"
    },
    {
      "inputs": [],
      "name": "getTasks",
      "outputs": [
        {
          "components": [
            {
              "internalType": "uint256",
              "name": "id",
              "type": "uint256"
            },
            {
              "internalType": "string",
              "name": "content",
              "type": "string"
            },
            {
              "internalType": "bool",
              "name": "isDone",
              "type": "bool"
            },
            {
              "internalType": "uint256",
              "name": "date",
              "type": "uint256"
            },
            {
              "internalType": "uint256",
              "name": "dateOfCompletion",
              "type": "uint256"
            }
          ],
          "internalType": "struct TodoList.Task[]",
          "name": "",
          "type": "tuple[]"
        }
      ],
      "stateMutability": "view",
      "type": "function",
      "constant": true
    },
    {
      "inputs": [
        {
          "internalType": "uint256",
          "name": "_id",
          "type": "uint256"
        }
      ],
      "name": "toggleTaskDone",
      "outputs": [],
      "stateMutability": "nonpayable",
      "type": "function"
    },
    {
      "inputs": [
        {
          "internalType": "uint256",
          "name": "_id",
          "type": "uint256"
        }
      ],
      "name": "deleteTask",
      "outputs": [],
      "stateMutability": "nonpayable",
      "type": "function"
    }
  ],
  "bytecode": "0x6080604052600160005534801561001557600080fd5b50610d63806100256000396000f3fe608060405234801561001057600080fd5b506004361061004c5760003560e01c806304a87e381461005157806304fe2b341461006f578063560f31921461008b578063999f8d37146100a7575b600080fd5b6100596100c3565b6040516100669190610893565b60405180910390f35b61008960048036038101906100849190610a2a565b610251565b005b6100a560048036038101906100a09190610a86565b610376565b005b6100c160048036038101906100bc9190610a86565b61045e565b005b60606000805467ffffffffffffffff8111156100e2576100e16108d3565b5b60405190808252806020026020018201604052801561011b57816020015b61010861057a565b8152602001906001900390816101005790505b5090506000600190505b60005481101561024957600260008281526020019081526020016000206040518060a00160405290816000820154815260200160018201805461016790610ae2565b80601f016020809104026020016040519081016040528092919081815260200182805461019390610ae2565b80156101e05780601f106101b5576101008083540402835291602001916101e0565b820191906000526020600020905b8154815290600101906020018083116101c357829003601f168201915b505050505081526020016002820160009054906101000a900460ff161515151581526020016003820154815260200160048201548152505082828151811061022b5761022a610b14565b5b6020026020010181905250808061024190610b72565b915050610125565b508091505090565b6040518060a001604052806000548152602001838152602001600015158152602001828152602001600081525060026000805481526020019081526020016000206000820151816000015560208201518160010190805190602001906102b89291906105ab565b5060408201518160020160006101000a81548160ff02191690831515021790555060608201518160030155608082015181600401559050506001600054908060018154018082558091505060019003906000526020600020016000909190919091505560008081548092919061032d90610b72565b91905055507ff844eff5bb3b551f3ab172f7edad2073ce268e60cbb5bf8a7b6d5e41154b0f466000548360008460405161036a9493929190610c23565b60405180910390a15050565b806000600260008381526020019081526020016000206000015414156103d1576040517f08c379a00000000000000000000000000000000000000000000000000000000081526004016103c890610cbb565b60405180910390fd5b600260008381526020019081526020016000206000808201600090556001820160006103fd9190610631565b6002820160006101000a81549060ff02191690556003820160009055600482016000905550507fd078b251d950cc55c44340be1db732337ef4939a76e1367ee271ad2cb19c46af826040516104529190610cdb565b60405180910390a15050565b806000600260008381526020019081526020016000206000015414156104b9576040517f08c379a00000000000000000000000000000000000000000000000000000000081526004016104b090610cbb565b60405180910390fd5b60006002600084815260200190815260200160002090508060020160009054906101000a900460ff16158160020160006101000a81548160ff0219169083151502179055508060020160009054906101000a900460ff1661051b57600061051d565b425b81600401819055507fb635a30fe5ce6d82687b364cef7375abe2ef73ca46892e1ecc32d3a853c4ddcc838260020160009054906101000a900460ff16836004015460405161056d93929190610cf6565b60405180910390a1505050565b6040518060a00160405280600081526020016060815260200160001515815260200160008152602001600081525090565b8280546105b790610ae2565b90600052602060002090601f0160209004810192826105d95760008555610620565b82601f106105f257805160ff1916838001178555610620565b82800160010185558215610620579182015b8281111561061f578251825591602001919060010190610604565b5b50905061062d9190610671565b5090565b50805461063d90610ae2565b6000825580601f1061064f575061066e565b601f01602090049060005260206000209081019061066d9190610671565b5b50565b5b8082111561068a576000816000905550600101610672565b5090565b600081519050919050565b600082825260208201905092915050565b6000819050602082019050919050565b6000819050919050565b6106cd816106ba565b82525050565b600081519050919050565b600082825260208201905092915050565b60005b8381101561070d5780820151818401526020810190506106f2565b8381111561071c576000848401525b50505050565b6000601f19601f8301169050919050565b600061073e826106d3565b61074881856106de565b93506107588185602086016106ef565b61076181610722565b840191505092915050565b60008115159050919050565b6107818161076c565b82525050565b600060a08301600083015161079f60008601826106c4565b50602083015184820360208601526107b78282610733565b91505060408301516107cc6040860182610778565b5060608301516107df60608601826106c4565b5060808301516107f260808601826106c4565b508091505092915050565b60006108098383610787565b905092915050565b6000602082019050919050565b60006108298261068e565b6108338185610699565b935083602082028501610845856106aa565b8060005b85811015610881578484038952815161086285826107fd565b945061086d83610811565b925060208a01995050600181019050610849565b50829750879550505050505092915050565b600060208201905081810360008301526108ad818461081e565b905092915050565b6000604051905090565b600080fd5b600080fd5b600080fd5b600080fd5b7f4e487b7100000000000000000000000000000000000000000000000000000000600052604160045260246000fd5b61090b82610722565b810181811067ffffffffffffffff8211171561092a576109296108d3565b5b80604052505050565b600061093d6108b5565b90506109498282610902565b919050565b600067ffffffffffffffff821115610969576109686108d3565b5b61097282610722565b9050602081019050919050565b82818337600083830152505050565b60006109a161099c8461094e565b610933565b9050828152602081018484840111156109bd576109bc6108ce565b5b6109c884828561097f565b509392505050565b600082601f8301126109e5576109e46108c9565b5b81356109f584826020860161098e565b91505092915050565b610a07816106ba565b8114610a1257600080fd5b50565b600081359050610a24816109fe565b92915050565b60008060408385031215610a4157610a406108bf565b5b600083013567ffffffffffffffff811115610a5f57610a5e6108c4565b5b610a6b858286016109d0565b9250506020610a7c85828601610a15565b9150509250929050565b600060208284031215610a9c57610a9b6108bf565b5b6000610aaa84828501610a15565b91505092915050565b7f4e487b7100000000000000000000000000000000000000000000000000000000600052602260045260246000fd5b60006002820490506001821680610afa57607f821691505b60208210811415610b0e57610b0d610ab3565b5b50919050565b7f4e487b7100000000000000000000000000000000000000000000000000000000600052603260045260246000fd5b7f4e487b7100000000000000000000000000000000000000000000000000000000600052601160045260246000fd5b6000610b7d826106ba565b91507fffffffffffffffffffffffffffffffffffffffffffffffffffffffffffffffff821415610bb057610baf610b43565b5b600182019050919050565b610bc4816106ba565b82525050565b600082825260208201905092915050565b6000610be6826106d3565b610bf08185610bca565b9350610c008185602086016106ef565b610c0981610722565b840191505092915050565b610c1d8161076c565b82525050565b6000608082019050610c386000830187610bbb565b8181036020830152610c4a8186610bdb565b9050610c596040830185610c14565b610c666060830184610bbb565b95945050505050565b7f5265766572743a205461736b20646f6573206e6f742065786973740000000000600082015250565b6000610ca5601b83610bca565b9150610cb082610c6f565b602082019050919050565b60006020820190508181036000830152610cd481610c98565b9050919050565b6000602082019050610cf06000830184610bbb565b92915050565b6000606082019050610d0b6000830186610bbb565b610d186020830185610c14565b610d256040830184610bbb565b94935050505056fea2646970667358221220c5610fa650506982c603057eb977ba0e673dfc7c8ef871c20436ae08cfcc189364736f6c634300080a0033",
  "immutableReferences": {},
  "source": "pragma solidity ^0.8.10;\n\ncontract TodoList {\n  uint private taskCount = 1;\n  uint[] private taskIds;\n\n  struct Task {\n    uint id;\n    string content;\n    bool isDone;\n    uint date;\n    uint dateOfCompletion;\n  }\n\n  event TaskCreated(uint id, string content, bool isDone, uint date);\n  event TaskChanged(uint id, bool isDone, uint dateOfCompletion);\n  event TaskDeleted(uint id);\n\n  mapping(uint => Task) tasks;\n\n  function createTask (string memory _content, uint _date) public {\n  \n    tasks[taskCount] = Task(taskCount, _content, false, _date, 0);\n    taskIds.push(taskCount);\n    taskCount++;\n\n    emit TaskCreated(taskCount, _content, false, _date);\n  }\n\n  function getTasks () public view returns (Task[] memory) {\n    Task[] memory _tasks = new Task[](taskCount);\n\n    for (uint i = 1; i < taskCount; i++) {\n      _tasks[i] = tasks[i];\n    }\n\n    return _tasks;\n  }\n\n  function toggleTaskDone(uint _id) public doesTaskExist(_id) {\n    Task storage task = tasks[_id];\n    task.isDone = !task.isDone;\n    task.dateOfCompletion = task.isDone ? block.timestamp : 0;\n\n    emit TaskChanged(_id, task.isDone, task.dateOfCompletion);\n  }\n\n  function deleteTask(uint _id) public doesTaskExist(_id) {\n    delete tasks[_id];\n\n    emit TaskDeleted(_id);\n  }\n\n  modifier doesTaskExist (uint _taskId) {\n    if (tasks[_taskId].id == 0) {\n      revert(\"Revert: Task does not exist\");\n    }\n    _;\n  }\n\n}",
  "sourcePath": "/Users/rr/Documents/todo-blockchain/contracts/TodoList.sol",
  "compiler": {
    "name": "solc",
    "version": "0.8.10+commit.fc410830.Emscripten.clang"
  },
  "schemaVersion": "3.4.4",
  "updatedAt": "2022-01-25T09:05:30.925Z",
  "networkType": "ethereum",
  "devdoc": {
    "kind": "dev",
    "methods": {},
    "version": 1
  },
  "userdoc": {
    "kind": "user",
    "methods": {},
    "version": 1
  }
}