{
  "contractName": "TodoList",
  "abi": [
    {
      "inputs": [],
      "stateMutability": "nonpayable",
      "type": "constructor"
    },
    {
      "inputs": [
        {
          "internalType": "string",
          "name": "_content",
          "type": "string"
        }
      ],
      "name": "createTask",
      "outputs": [],
      "stateMutability": "nonpayable",
      "type": "function"
    }
  ],
  "bytecode": "0x60806040526000805534801561001457600080fd5b506100596040518060400160405280601a81526020017f436865636b6f75742074686520536f6c696469747920646f637300000000000081525061005e60201b60201c565b61027c565b600080815480929190610070906101d2565b9190505550604051806060016040528060005481526020018281526020016000151581525060016000805481526020019081526020016000206000820151816000015560208201518160010190805190602001906100cf9291906100f6565b5060408201518160020160006101000a81548160ff02191690831515021790555090505050565b8280546101029061024a565b90600052602060002090601f016020900481019282610124576000855561016b565b82601f1061013d57805160ff191683800117855561016b565b8280016001018555821561016b579182015b8281111561016a57825182559160200191906001019061014f565b5b509050610178919061017c565b5090565b5b8082111561019557600081600090555060010161017d565b5090565b7f4e487b7100000000000000000000000000000000000000000000000000000000600052601160045260246000fd5b6000819050919050565b60006101dd826101c8565b91507fffffffffffffffffffffffffffffffffffffffffffffffffffffffffffffffff8214156102105761020f610199565b5b600182019050919050565b7f4e487b7100000000000000000000000000000000000000000000000000000000600052602260045260246000fd5b6000600282049050600182168061026257607f821691505b602082108114156102765761027561021b565b5b50919050565b6104438061028b6000396000f3fe608060405234801561001057600080fd5b506004361061002b5760003560e01c8063111002aa14610030575b600080fd5b61004a600480360381019061004591906102e1565b61004c565b005b60008081548092919061005e90610363565b9190505550604051806060016040528060005481526020018281526020016000151581525060016000805481526020019081526020016000206000820151816000015560208201518160010190805190602001906100bd9291906100e4565b5060408201518160020160006101000a81548160ff02191690831515021790555090505050565b8280546100f0906103db565b90600052602060002090601f0160209004810192826101125760008555610159565b82601f1061012b57805160ff1916838001178555610159565b82800160010185558215610159579182015b8281111561015857825182559160200191906001019061013d565b5b509050610166919061016a565b5090565b5b8082111561018357600081600090555060010161016b565b5090565b6000604051905090565b600080fd5b600080fd5b600080fd5b600080fd5b6000601f19601f8301169050919050565b7f4e487b7100000000000000000000000000000000000000000000000000000000600052604160045260246000fd5b6101ee826101a5565b810181811067ffffffffffffffff8211171561020d5761020c6101b6565b5b80604052505050565b6000610220610187565b905061022c82826101e5565b919050565b600067ffffffffffffffff82111561024c5761024b6101b6565b5b610255826101a5565b9050602081019050919050565b82818337600083830152505050565b600061028461027f84610231565b610216565b9050828152602081018484840111156102a05761029f6101a0565b5b6102ab848285610262565b509392505050565b600082601f8301126102c8576102c761019b565b5b81356102d8848260208601610271565b91505092915050565b6000602082840312156102f7576102f6610191565b5b600082013567ffffffffffffffff81111561031557610314610196565b5b610321848285016102b3565b91505092915050565b7f4e487b7100000000000000000000000000000000000000000000000000000000600052601160045260246000fd5b6000819050919050565b600061036e82610359565b91507fffffffffffffffffffffffffffffffffffffffffffffffffffffffffffffffff8214156103a1576103a061032a565b5b600182019050919050565b7f4e487b7100000000000000000000000000000000000000000000000000000000600052602260045260246000fd5b600060028204905060018216806103f357607f821691505b60208210811415610407576104066103ac565b5b5091905056fea2646970667358221220ffb8a366502fdc9bd80b401d685066ed748a6ac414cc99f6abd30c88beba3b6b64736f6c634300080a0033",
  "immutableReferences": {},
  "source": "pragma solidity ^0.8.10;\n\ncontract TodoList {\n  constructor () {\n    createTask('Checkout the Solidity docs');\n  }\n\n  uint taskCount = 0;\n\n  struct Task {\n    uint id;\n    string content;\n    bool completed;\n  }\n\n  mapping(uint => Task) tasks;\n\n  function createTask (string memory _content) public {\n    taskCount++;\n    tasks[taskCount] = Task(taskCount, _content, false);\n  }\n}",
  "sourcePath": "/Users/rr/Documents/todo-blockchain/contracts/TodoList.sol",
  "compiler": {
    "name": "solc",
    "version": "0.8.10+commit.fc410830.Emscripten.clang"
  },
  "schemaVersion": "3.4.4",
  "updatedAt": "2022-01-03T07:22:37.070Z",
  "networkType": "ethereum",
  "devdoc": {
    "kind": "dev",
    "methods": {},
    "version": 1
  },
  "userdoc": {
    "kind": "user",
    "methods": {},
    "version": 1
  }
}